S02800003330306D732D426C696B696E672D4C45442D576974682D496E746572727570742E73726563D7
S11300000C943A000C9457000C9457000C9457002D
S11300100C9484010C94AB010C9457000C94E800EC
S11300200C9457000C940F010C9436010C945D0150
S11300300C9457000C9457000C9457000C945700E0
S11300400C9457000C9457000C9457000C945700D0
S11300500C9457007E03880392039C03B003A60309
S1130060BA03C403E903F303FD0307041B041104E7
S113007025042F0411241FBECFE5D8E0DEBFCDBF79
S113008010E0A0E6B0E0E2E8F8E002C005900D92CE
S1130090A836B107D9F720E0A8E6B0E001C01D9268
S11300A0AF36B207E1F70E9478000C943F040C9439
S11300B000000E949C0008950E94B40008950E94CC
S11300C0CC00089580916800813039F462E080E0CA
S11300D00E945F0010926800089580916800811169
S11300E006C062E00E945C0081E08093680008958D
S11300F0CF93DF93CDB7DEB727970FB6F894DEBF63
S11301000FBECDBF62E080E00E94590087E0E0E6C8
S1130110F0E0DE01119601900D928A95E1F7CE018F
S113012001960E94E70162E670E081E00E94D2013C
S11301308FB780688FBFFFCF813051F028F08230B5
S113014059F0833069F008958AB3682B6ABB089527
S113015087B3682B67BB089584B3682B64BB089589
S113016081B3682B61BB0895813051F028F082304F
S113017059F0833069F008958BB3682B6BBB0895F5
S11301808BB3682B6BBB08958BB3682B6BBB089543
S11301908BB3682B6BBB0895813059F028F0823003
S11301A069F0833081F008958BB3609568236BBB4D
S11301B0089588B36095682368BB089585B36095F6
S11301C0682365BB089582B36095682362BB089574
S11301D01F920F920FB60F9211242F933F934F93B8
S11301E05F936F937F938F939F93AF93BF93EF939B
S11301F0FF93E0916B00F0916C000995FF91EF91F2
S1130200BF91AF919F918F917F916F915F914F912A
S11302103F912F910F900FBE0F901F9018951F9232
S11302200F920FB60F9211242F933F934F935F9326
S11302306F937F938F939F93AF93BF93EF93FF93AA
S1130240E0916B00F0916C000995FF91EF91BF91E3
S1130250AF919F918F917F916F915F914F913F915A
S11302602F910F900FBE0F901F9018951F920F9211
S11302700FB60F9211242F933F934F935F936F9375
S11302807F938F939F93AF93BF93EF93FF93E091EB
S11302906D00F0916E000995FF91EF91BF91AF91C0
S11302A09F918F917F916F915F914F913F912F918A
S11302B00F900FBE0F901F9018951F920F920FB6BC
S11302C00F9211242F933F934F935F936F937F93D8
S11302D08F939F93AF93BF93EF93FF93E0916D0040
S11302E0F0916E000995FF91EF91BF91AF919F91AD
S11302F08F917F916F915F914F913F912F910F90CB
S11303000FBE0F901F9018951F920F920FB60F9269
S113031011242F933F934F935F936F937F938F9306
S11303209F93AF93BF93EF93FF93E0916900F09194
S11303306A000995FF91EF91BF91AF919F918F91C1
S11303407F916F915F914F913F912F910F900FBECD
S11303500F901F9018951F920F920FB60F921124B1
S11303602F933F934F935F936F937F938F939F93B9
S1130370AF93BF93EF93FF93E0916900F0916A000C
S11303800995FF91EF91BF91AF919F918F917F91CB
S11303906F915F914F913F912F910F900FBE0F90EE
S11303A01F901895813049F018F0823059F0089563
S11303B070936E0060936D00089570936C00609369
S11303C06B00089570936A00609369000895FC01BE
S11303D080818111B3C08181811154C012BE89B75B
S11303E0816089BF83B7806883BF8281823011F1C5
S11303F028F4882359F0813099F00895863071F1FA
S11304008730B1F1853009F033C21EC083B78E7FC7
S113041083BF83B78D7F83BF83B78B7F83BF0895EB
S113042083B7816083BF83B78D7F83BF83B78B7F9F
S113043083BF089583B78E7F83BF83B7826083BFF2
S113044083B78B7F83BF089583B7816083BF83B7EE
S1130450826083BF83B78B7F83BF089583B78E7F0A
S113046083BF83B78D7F83BF83B7846083BF0895C1
S113047083B7816083BF83B78D7F83BF83B7846075
S113048083BF0895813009F0F3C112BE89B7826039
S113049089BF83B7886083BF83B7806883BF838144
S11304A08CBF8281823011F128F4882359F0813085
S11304B099F00895863071F18730B1F1853009F0F3
S11304C0D7C11EC083B78E7F83BF83B78D7F83BFA1
S11304D083B78B7F83BF089583B7816083BF83B75E
S11304E08D7F83BF83B78B7F83BF089583B78E7F50
S11304F083BF83B7826083BF83B78B7F83BF089535
S113050083B7816083BF83B7826083BF83B78B7FE8
S113051083BF089583B78E7F83BF83B78D7F83BFE7
S113052083B7846083BF089583B7816083BF83B733
S11305308D7F83BF83B7846083BF0895813009F0C2
S1130540C4C08181811158C01DBC1CBC89B78460A2
S113055089BF8FB584608FBD8FB588608FBD828160
S1130560823011F128F4882359F0813099F00895EC
S1130570863071F18730B1F1853009F079C11EC040
S11305808EB58E7F8EBD8EB58D7F8EBD8EB58B7FE5
S11305908EBD08958EB581608EBD8EB58D7F8EBD66
S11305A08EB58B7F8EBD08958EB58E7F8EBD8EB534
S11305B082608EBD8EB58B7F8EBD08958EB58160B1
S11305C08EBD8EB582608EBD8EB58B7F8EBD089537
S11305D08EB58E7F8EBD8EB58D7F8EBD8EB58460BB
S11305E08EBD08958EB581608EBD8EB58D7F8EBD16
S11305F08EB584608EBD0895813009F039C11DBC6B
S11306001CBC89B7806189BF8FB584608FBD8FB5ED
S113061088608FBD83819481A581B681892F9A2FAB
S1130620AB2FBB278BBD83818ABD8EB588608EBD01
S11306308281823011F128F4882359F0813099F0B5
S11306400895863071F18730B1F1853009F010C119
S11306501EC08EB58E7F8EBD8EB58D7F8EBD8EB540
S11306608B7F8EBD08958EB581608EBD8EB58D7FD6
S11306708EBD8EB58B7F8EBD08958EB58E7F8EBD5B
S11306808EB582608EBD8EB58B7F8EBD08958EB57E
S113069081608EBD8EB582608EBD8EB58B7F8EBD22
S11306A008958EB58E7F8EBD8EB58D7F8EBD8EB531
S11306B084608EBD08958EB581608EBD8EB58D7FAC
S11306C08EBD8EB584608EBD0895823009F0D0C091
S11306D08181811163C014BC89B7806489BF85B5E9
S11306E0806885BDE2818E2F90E08830910508F006
S11306F0BFC0FC01E65DFF4F0C94390483B78E7FC5
S113070083BF83B78D7F83BF83B78B7F83BF0895F8
S113071083B7816083BF83B78D7F83BF83B78B7FAC
S113072083BF089583B78E7F83BF83B7826083BFFF
S113073083B78B7F83BF089583B7816083BF83B7FB
S1130740826083BF83B78B7F83BF089583B78E7F17
S113075083BF83B78D7F83BF83B7846083BF0895CE
S113076083B7816083BF83B78D7F83BF83B7846082
S113077083BF089583B78E7F83BF83B7826083BFAF
S113078083B7846083BF089583B7816083BF83B7D1
S1130790826083BF83B7846083BF0895813009F08A
S11307A067C014BC89B7806889BF85B5886085BD7A
S11307B085B5806885BD838183BDE2818E2F90E0FD
S11307C08830910508F054C0FC01EE5CFF4F0C9496
S11307D0390483B78E7F83BF83B78D7F83BF83B78D
S11307E08B7F83BF089583B7816083BF83B78D7F79
S11307F083BF83B78B7F83BF089583B78E7F83BF07
S113080083B7826083BF83B78B7F83BF089583B729
S1130810816083BF83B7826083BF83B78B7F83BFCD
S1130820089583B78E7F83BF83B78D7F83BF83B7DC
S1130830846083BF089583B7816083BF83B78D7F4E
S113084083BF83B7846083BF089583B78E7F83BFDC
S113085083B7826083BF83B7846083BF089583B7FF
S1130860816083BF83B7826083BF83B7846083BFA3
S11308700895EE0FFF1F0590F491E02D0994F8946C
S1050880FFCFA4
S10B088201010725010000003B
S9030000FC
